{
  "_format": "hh-sol-artifact-1",
  "contractName": "ERC20_smart_contract",
  "sourceName": "contracts/Modified_token.sol",
  "abi": [
    {
      "inputs": [
        {
          "internalType": "address",
          "name": "_owner",
          "type": "address"
        },
        {
          "internalType": "uint256",
          "name": "initialSupply",
          "type": "uint256"
        }
      ],
      "stateMutability": "nonpayable",
      "type": "constructor"
    },
    {
      "inputs": [
        {
          "internalType": "address",
          "name": "spender",
          "type": "address"
        },
        {
          "internalType": "uint256",
          "name": "allowance",
          "type": "uint256"
        },
        {
          "internalType": "uint256",
          "name": "needed",
          "type": "uint256"
        }
      ],
      "name": "ERC20InsufficientAllowance",
      "type": "error"
    },
    {
      "inputs": [
        {
          "internalType": "address",
          "name": "sender",
          "type": "address"
        },
        {
          "internalType": "uint256",
          "name": "balance",
          "type": "uint256"
        },
        {
          "internalType": "uint256",
          "name": "needed",
          "type": "uint256"
        }
      ],
      "name": "ERC20InsufficientBalance",
      "type": "error"
    },
    {
      "inputs": [
        {
          "internalType": "address",
          "name": "approver",
          "type": "address"
        }
      ],
      "name": "ERC20InvalidApprover",
      "type": "error"
    },
    {
      "inputs": [
        {
          "internalType": "address",
          "name": "receiver",
          "type": "address"
        }
      ],
      "name": "ERC20InvalidReceiver",
      "type": "error"
    },
    {
      "inputs": [
        {
          "internalType": "address",
          "name": "sender",
          "type": "address"
        }
      ],
      "name": "ERC20InvalidSender",
      "type": "error"
    },
    {
      "inputs": [
        {
          "internalType": "address",
          "name": "spender",
          "type": "address"
        }
      ],
      "name": "ERC20InvalidSpender",
      "type": "error"
    },
    {
      "anonymous": false,
      "inputs": [
        {
          "indexed": true,
          "internalType": "address",
          "name": "owner",
          "type": "address"
        },
        {
          "indexed": true,
          "internalType": "address",
          "name": "spender",
          "type": "address"
        },
        {
          "indexed": false,
          "internalType": "uint256",
          "name": "value",
          "type": "uint256"
        }
      ],
      "name": "Approval",
      "type": "event"
    },
    {
      "anonymous": false,
      "inputs": [
        {
          "indexed": true,
          "internalType": "address",
          "name": "from",
          "type": "address"
        },
        {
          "indexed": true,
          "internalType": "address",
          "name": "to",
          "type": "address"
        },
        {
          "indexed": false,
          "internalType": "uint256",
          "name": "value",
          "type": "uint256"
        }
      ],
      "name": "Transfer",
      "type": "event"
    },
    {
      "inputs": [
        {
          "internalType": "address",
          "name": "owner",
          "type": "address"
        },
        {
          "internalType": "address",
          "name": "spender",
          "type": "address"
        }
      ],
      "name": "allowance",
      "outputs": [
        {
          "internalType": "uint256",
          "name": "",
          "type": "uint256"
        }
      ],
      "stateMutability": "view",
      "type": "function"
    },
    {
      "inputs": [
        {
          "internalType": "address",
          "name": "spender",
          "type": "address"
        },
        {
          "internalType": "uint256",
          "name": "value",
          "type": "uint256"
        }
      ],
      "name": "approve",
      "outputs": [
        {
          "internalType": "bool",
          "name": "",
          "type": "bool"
        }
      ],
      "stateMutability": "nonpayable",
      "type": "function"
    },
    {
      "inputs": [
        {
          "internalType": "address",
          "name": "account",
          "type": "address"
        }
      ],
      "name": "balanceOf",
      "outputs": [
        {
          "internalType": "uint256",
          "name": "",
          "type": "uint256"
        }
      ],
      "stateMutability": "view",
      "type": "function"
    },
    {
      "inputs": [],
      "name": "decimals",
      "outputs": [
        {
          "internalType": "uint8",
          "name": "",
          "type": "uint8"
        }
      ],
      "stateMutability": "view",
      "type": "function"
    },
    {
      "inputs": [],
      "name": "getLastReceiverAddress",
      "outputs": [
        {
          "internalType": "address",
          "name": "",
          "type": "address"
        }
      ],
      "stateMutability": "view",
      "type": "function"
    },
    {
      "inputs": [],
      "name": "getLastSenderAddress",
      "outputs": [
        {
          "internalType": "address",
          "name": "",
          "type": "address"
        }
      ],
      "stateMutability": "view",
      "type": "function"
    },
    {
      "inputs": [],
      "name": "getLastTransactionTimestamp",
      "outputs": [
        {
          "internalType": "string",
          "name": "",
          "type": "string"
        }
      ],
      "stateMutability": "view",
      "type": "function"
    },
    {
      "inputs": [],
      "name": "lastReceiver",
      "outputs": [
        {
          "internalType": "address",
          "name": "",
          "type": "address"
        }
      ],
      "stateMutability": "view",
      "type": "function"
    },
    {
      "inputs": [],
      "name": "lastSender",
      "outputs": [
        {
          "internalType": "address",
          "name": "",
          "type": "address"
        }
      ],
      "stateMutability": "view",
      "type": "function"
    },
    {
      "inputs": [],
      "name": "lastTimestamp",
      "outputs": [
        {
          "internalType": "uint256",
          "name": "",
          "type": "uint256"
        }
      ],
      "stateMutability": "view",
      "type": "function"
    },
    {
      "inputs": [],
      "name": "name",
      "outputs": [
        {
          "internalType": "string",
          "name": "",
          "type": "string"
        }
      ],
      "stateMutability": "view",
      "type": "function"
    },
    {
      "inputs": [],
      "name": "owner",
      "outputs": [
        {
          "internalType": "address",
          "name": "",
          "type": "address"
        }
      ],
      "stateMutability": "view",
      "type": "function"
    },
    {
      "inputs": [],
      "name": "symbol",
      "outputs": [
        {
          "internalType": "string",
          "name": "",
          "type": "string"
        }
      ],
      "stateMutability": "view",
      "type": "function"
    },
    {
      "inputs": [],
      "name": "totalSupply",
      "outputs": [
        {
          "internalType": "uint256",
          "name": "",
          "type": "uint256"
        }
      ],
      "stateMutability": "view",
      "type": "function"
    },
    {
      "inputs": [
        {
          "internalType": "address",
          "name": "recipient",
          "type": "address"
        },
        {
          "internalType": "uint256",
          "name": "amount",
          "type": "uint256"
        }
      ],
      "name": "transfer",
      "outputs": [
        {
          "internalType": "bool",
          "name": "",
          "type": "bool"
        }
      ],
      "stateMutability": "nonpayable",
      "type": "function"
    },
    {
      "inputs": [
        {
          "internalType": "address",
          "name": "from",
          "type": "address"
        },
        {
          "internalType": "address",
          "name": "to",
          "type": "address"
        },
        {
          "internalType": "uint256",
          "name": "value",
          "type": "uint256"
        }
      ],
      "name": "transferFrom",
      "outputs": [
        {
          "internalType": "bool",
          "name": "",
          "type": "bool"
        }
      ],
      "stateMutability": "nonpayable",
      "type": "function"
    }
  ],
  "bytecode": "0x60806040523480156200001157600080fd5b5060405162001dbb38038062001dbb8339818101604052810190620000379190620004f8565b6040518060400160405280601b81526020017f4d6f6469666965645f414954555f53452d323331385f546f6b656e00000000008152506040518060400160405280600781526020017f4d414954555345000000000000000000000000000000000000000000000000008152508160039081620000b49190620007af565b508060049081620000c69190620007af565b505050600073ffffffffffffffffffffffffffffffffffffffff168273ffffffffffffffffffffffffffffffffffffffff16036200013b576040517f08c379a00000000000000000000000000000000000000000000000000000000081526004016200013290620008f7565b60405180910390fd5b81600860006101000a81548173ffffffffffffffffffffffffffffffffffffffff021916908373ffffffffffffffffffffffffffffffffffffffff1602179055506200018e82826200019660201b60201c565b505062000a1c565b600073ffffffffffffffffffffffffffffffffffffffff168273ffffffffffffffffffffffffffffffffffffffff16036200020b5760006040517fec442f050000000000000000000000000000000000000000000000000000000081526004016200020291906200092a565b60405180910390fd5b6200021f600083836200022360201b60201c565b5050565b600073ffffffffffffffffffffffffffffffffffffffff168373ffffffffffffffffffffffffffffffffffffffff1603620002795780600260008282546200026c919062000976565b925050819055506200034f565b60008060008573ffffffffffffffffffffffffffffffffffffffff1673ffffffffffffffffffffffffffffffffffffffff1681526020019081526020016000205490508181101562000308578381836040517fe450d38c000000000000000000000000000000000000000000000000000000008152600401620002ff93929190620009c2565b60405180910390fd5b8181036000808673ffffffffffffffffffffffffffffffffffffffff1673ffffffffffffffffffffffffffffffffffffffff16815260200190815260200160002081905550505b600073ffffffffffffffffffffffffffffffffffffffff168273ffffffffffffffffffffffffffffffffffffffff16036200039a5780600260008282540392505081905550620003e7565b806000808473ffffffffffffffffffffffffffffffffffffffff1673ffffffffffffffffffffffffffffffffffffffff168152602001908152602001600020600082825401925050819055505b8173ffffffffffffffffffffffffffffffffffffffff168373ffffffffffffffffffffffffffffffffffffffff167fddf252ad1be2c89b69c2b068fc378daa952ba7f163c4a11628f55a4df523b3ef83604051620004469190620009ff565b60405180910390a3505050565b600080fd5b600073ffffffffffffffffffffffffffffffffffffffff82169050919050565b6000620004858262000458565b9050919050565b620004978162000478565b8114620004a357600080fd5b50565b600081519050620004b7816200048c565b92915050565b6000819050919050565b620004d281620004bd565b8114620004de57600080fd5b50565b600081519050620004f281620004c7565b92915050565b6000806040838503121562000512576200051162000453565b5b60006200052285828601620004a6565b92505060206200053585828601620004e1565b9150509250929050565b600081519050919050565b7f4e487b7100000000000000000000000000000000000000000000000000000000600052604160045260246000fd5b7f4e487b7100000000000000000000000000000000000000000000000000000000600052602260045260246000fd5b60006002820490506001821680620005c157607f821691505b602082108103620005d757620005d662000579565b5b50919050565b60008190508160005260206000209050919050565b60006020601f8301049050919050565b600082821b905092915050565b600060088302620006417fffffffffffffffffffffffffffffffffffffffffffffffffffffffffffffffff8262000602565b6200064d868362000602565b95508019841693508086168417925050509392505050565b6000819050919050565b6000620006906200068a6200068484620004bd565b62000665565b620004bd565b9050919050565b6000819050919050565b620006ac836200066f565b620006c4620006bb8262000697565b8484546200060f565b825550505050565b600090565b620006db620006cc565b620006e8818484620006a1565b505050565b5b81811015620007105762000704600082620006d1565b600181019050620006ee565b5050565b601f8211156200075f576200072981620005dd565b6200073484620005f2565b8101602085101562000744578190505b6200075c6200075385620005f2565b830182620006ed565b50505b505050565b600082821c905092915050565b6000620007846000198460080262000764565b1980831691505092915050565b60006200079f838362000771565b9150826002028217905092915050565b620007ba826200053f565b67ffffffffffffffff811115620007d657620007d56200054a565b5b620007e28254620005a8565b620007ef82828562000714565b600060209050601f83116001811462000827576000841562000812578287015190505b6200081e858262000791565b8655506200088e565b601f1984166200083786620005dd565b60005b8281101562000861578489015182556001820191506020850194506020810190506200083a565b868310156200088157848901516200087d601f89168262000771565b8355505b6001600288020188555050505b505050505050565b600082825260208201905092915050565b7f4f776e657220616464726573732063616e6e6f74206265207a65726f00000000600082015250565b6000620008df601c8362000896565b9150620008ec82620008a7565b602082019050919050565b600060208201905081810360008301526200091281620008d0565b9050919050565b620009248162000478565b82525050565b600060208201905062000941600083018462000919565b92915050565b7f4e487b7100000000000000000000000000000000000000000000000000000000600052601160045260246000fd5b60006200098382620004bd565b91506200099083620004bd565b9250828201905080821115620009ab57620009aa62000947565b5b92915050565b620009bc81620004bd565b82525050565b6000606082019050620009d9600083018662000919565b620009e86020830185620009b1565b620009f76040830184620009b1565b949350505050565b600060208201905062000a166000830184620009b1565b92915050565b61138f8062000a2c6000396000f3fe608060405234801561001057600080fd5b50600436106101005760003560e01c806370a0823111610097578063a9059cbb11610066578063a9059cbb146102a3578063dd62ed3e146102d3578063f8ea8ed014610303578063f99638901461032157610100565b806370a08231146102195780638da5cb5b1461024957806395d89b41146102675780639b68767a1461028557610100565b806323b872dd116100d357806323b872dd1461018f578063256fec88146101bf578063313ce567146101dd57806341a37224146101fb57610100565b806306fdde0314610105578063095ea7b31461012357806318160ddd1461015357806319d8ac6114610171575b600080fd5b61010d61033f565b60405161011a9190610f85565b60405180910390f35b61013d60048036038101906101389190611040565b6103d1565b60405161014a919061109b565b60405180910390f35b61015b6103f4565b60405161016891906110c5565b60405180910390f35b6101796103fe565b60405161018691906110c5565b60405180910390f35b6101a960048036038101906101a491906110e0565b610404565b6040516101b6919061109b565b60405180910390f35b6101c7610433565b6040516101d49190611142565b60405180910390f35b6101e5610459565b6040516101f29190611179565b60405180910390f35b610203610462565b6040516102109190610f85565b60405180910390f35b610233600480360381019061022e9190611194565b610474565b60405161024091906110c5565b60405180910390f35b6102516104bc565b60405161025e9190611142565b60405180910390f35b61026f6104e2565b60405161027c9190610f85565b60405180910390f35b61028d610574565b60405161029a9190611142565b60405180910390f35b6102bd60048036038101906102b89190611040565b61059e565b6040516102ca919061109b565b60405180910390f35b6102ed60048036038101906102e891906111c1565b61063b565b6040516102fa91906110c5565b60405180910390f35b61030b6106c2565b6040516103189190611142565b60405180910390f35b6103296106e8565b6040516103369190611142565b60405180910390f35b60606003805461034e90611230565b80601f016020809104026020016040519081016040528092919081815260200182805461037a90611230565b80156103c75780601f1061039c576101008083540402835291602001916103c7565b820191906000526020600020905b8154815290600101906020018083116103aa57829003601f168201915b5050505050905090565b6000806103dc610712565b90506103e981858561071a565b600191505092915050565b6000600254905090565b60075481565b60008061040f610712565b905061041c85828561072c565b6104278585856107c1565b60019150509392505050565b600560009054906101000a900473ffffffffffffffffffffffffffffffffffffffff1681565b60006012905090565b606061046f6007546108b5565b905090565b60008060008373ffffffffffffffffffffffffffffffffffffffff1673ffffffffffffffffffffffffffffffffffffffff168152602001908152602001600020549050919050565b600860009054906101000a900473ffffffffffffffffffffffffffffffffffffffff1681565b6060600480546104f190611230565b80601f016020809104026020016040519081016040528092919081815260200182805461051d90611230565b801561056a5780601f1061053f5761010080835404028352916020019161056a565b820191906000526020600020905b81548152906001019060200180831161054d57829003601f168201915b5050505050905090565b6000600560009054906101000a900473ffffffffffffffffffffffffffffffffffffffff16905090565b600033600560006101000a81548173ffffffffffffffffffffffffffffffffffffffff021916908373ffffffffffffffffffffffffffffffffffffffff16021790555082600660006101000a81548173ffffffffffffffffffffffffffffffffffffffff021916908373ffffffffffffffffffffffffffffffffffffffff160217905550426007819055506106338383610983565b905092915050565b6000600160008473ffffffffffffffffffffffffffffffffffffffff1673ffffffffffffffffffffffffffffffffffffffff16815260200190815260200160002060008373ffffffffffffffffffffffffffffffffffffffff1673ffffffffffffffffffffffffffffffffffffffff16815260200190815260200160002054905092915050565b600660009054906101000a900473ffffffffffffffffffffffffffffffffffffffff1681565b6000600660009054906101000a900473ffffffffffffffffffffffffffffffffffffffff16905090565b600033905090565b61072783838360016109a6565b505050565b6000610738848461063b565b90507fffffffffffffffffffffffffffffffffffffffffffffffffffffffffffffffff8110156107bb57818110156107ab578281836040517ffb8f41b20000000000000000000000000000000000000000000000000000000081526004016107a293929190611261565b60405180910390fd5b6107ba848484840360006109a6565b5b50505050565b600073ffffffffffffffffffffffffffffffffffffffff168373ffffffffffffffffffffffffffffffffffffffff16036108335760006040517f96c6fd1e00000000000000000000000000000000000000000000000000000000815260040161082a9190611142565b60405180910390fd5b600073ffffffffffffffffffffffffffffffffffffffff168273ffffffffffffffffffffffffffffffffffffffff16036108a55760006040517fec442f0500000000000000000000000000000000000000000000000000000000815260040161089c9190611142565b60405180910390fd5b6108b0838383610b7d565b505050565b6060600060016108c484610da2565b01905060008167ffffffffffffffff8111156108e3576108e2611298565b5b6040519080825280601f01601f1916602001820160405280156109155781602001600182028036833780820191505090505b509050600082602001820190505b600115610978578080600190039150507f3031323334353637383961626364656600000000000000000000000000000000600a86061a8153600a858161096c5761096b6112c7565b5b04945060008503610923575b819350505050919050565b60008061098e610712565b905061099b8185856107c1565b600191505092915050565b600073ffffffffffffffffffffffffffffffffffffffff168473ffffffffffffffffffffffffffffffffffffffff1603610a185760006040517fe602df05000000000000000000000000000000000000000000000000000000008152600401610a0f9190611142565b60405180910390fd5b600073ffffffffffffffffffffffffffffffffffffffff168373ffffffffffffffffffffffffffffffffffffffff1603610a8a5760006040517f94280d62000000000000000000000000000000000000000000000000000000008152600401610a819190611142565b60405180910390fd5b81600160008673ffffffffffffffffffffffffffffffffffffffff1673ffffffffffffffffffffffffffffffffffffffff16815260200190815260200160002060008573ffffffffffffffffffffffffffffffffffffffff1673ffffffffffffffffffffffffffffffffffffffff168152602001908152602001600020819055508015610b77578273ffffffffffffffffffffffffffffffffffffffff168473ffffffffffffffffffffffffffffffffffffffff167f8c5be1e5ebec7d5bd14f71427d1e84f3dd0314c0f7b2291e5b200ac8c7c3b92584604051610b6e91906110c5565b60405180910390a35b50505050565b600073ffffffffffffffffffffffffffffffffffffffff168373ffffffffffffffffffffffffffffffffffffffff1603610bcf578060026000828254610bc39190611325565b92505081905550610ca2565b60008060008573ffffffffffffffffffffffffffffffffffffffff1673ffffffffffffffffffffffffffffffffffffffff16815260200190815260200160002054905081811015610c5b578381836040517fe450d38c000000000000000000000000000000000000000000000000000000008152600401610c5293929190611261565b60405180910390fd5b8181036000808673ffffffffffffffffffffffffffffffffffffffff1673ffffffffffffffffffffffffffffffffffffffff16815260200190815260200160002081905550505b600073ffffffffffffffffffffffffffffffffffffffff168273ffffffffffffffffffffffffffffffffffffffff1603610ceb5780600260008282540392505081905550610d38565b806000808473ffffffffffffffffffffffffffffffffffffffff1673ffffffffffffffffffffffffffffffffffffffff168152602001908152602001600020600082825401925050819055505b8173ffffffffffffffffffffffffffffffffffffffff168373ffffffffffffffffffffffffffffffffffffffff167fddf252ad1be2c89b69c2b068fc378daa952ba7f163c4a11628f55a4df523b3ef83604051610d9591906110c5565b60405180910390a3505050565b600080600090507a184f03e93ff9f4daa797ed6e38ed64bf6a1f0100000000000000008310610e00577a184f03e93ff9f4daa797ed6e38ed64bf6a1f0100000000000000008381610df657610df56112c7565b5b0492506040810190505b6d04ee2d6d415b85acef81000000008310610e3d576d04ee2d6d415b85acef81000000008381610e3357610e326112c7565b5b0492506020810190505b662386f26fc100008310610e6c57662386f26fc100008381610e6257610e616112c7565b5b0492506010810190505b6305f5e1008310610e95576305f5e1008381610e8b57610e8a6112c7565b5b0492506008810190505b6127108310610eba576127108381610eb057610eaf6112c7565b5b0492506004810190505b60648310610edd5760648381610ed357610ed26112c7565b5b0492506002810190505b600a8310610eec576001810190505b80915050919050565b600081519050919050565b600082825260208201905092915050565b60005b83811015610f2f578082015181840152602081019050610f14565b60008484015250505050565b6000601f19601f8301169050919050565b6000610f5782610ef5565b610f618185610f00565b9350610f71818560208601610f11565b610f7a81610f3b565b840191505092915050565b60006020820190508181036000830152610f9f8184610f4c565b905092915050565b600080fd5b600073ffffffffffffffffffffffffffffffffffffffff82169050919050565b6000610fd782610fac565b9050919050565b610fe781610fcc565b8114610ff257600080fd5b50565b60008135905061100481610fde565b92915050565b6000819050919050565b61101d8161100a565b811461102857600080fd5b50565b60008135905061103a81611014565b92915050565b6000806040838503121561105757611056610fa7565b5b600061106585828601610ff5565b92505060206110768582860161102b565b9150509250929050565b60008115159050919050565b61109581611080565b82525050565b60006020820190506110b0600083018461108c565b92915050565b6110bf8161100a565b82525050565b60006020820190506110da60008301846110b6565b92915050565b6000806000606084860312156110f9576110f8610fa7565b5b600061110786828701610ff5565b935050602061111886828701610ff5565b92505060406111298682870161102b565b9150509250925092565b61113c81610fcc565b82525050565b60006020820190506111576000830184611133565b92915050565b600060ff82169050919050565b6111738161115d565b82525050565b600060208201905061118e600083018461116a565b92915050565b6000602082840312156111aa576111a9610fa7565b5b60006111b884828501610ff5565b91505092915050565b600080604083850312156111d8576111d7610fa7565b5b60006111e685828601610ff5565b92505060206111f785828601610ff5565b9150509250929050565b7f4e487b7100000000000000000000000000000000000000000000000000000000600052602260045260246000fd5b6000600282049050600182168061124857607f821691505b60208210810361125b5761125a611201565b5b50919050565b60006060820190506112766000830186611133565b61128360208301856110b6565b61129060408301846110b6565b949350505050565b7f4e487b7100000000000000000000000000000000000000000000000000000000600052604160045260246000fd5b7f4e487b7100000000000000000000000000000000000000000000000000000000600052601260045260246000fd5b7f4e487b7100000000000000000000000000000000000000000000000000000000600052601160045260246000fd5b60006113308261100a565b915061133b8361100a565b9250828201905080821115611353576113526112f6565b5b9291505056fea2646970667358221220eb58c2df4b21e3155722f78786c7f86622484f08fb38dc804cdc7be502812eaf64736f6c63430008140033",
  "linkReferences": {},
  "deployedLinkReferences": {}
}